S017000050424C5F49525F7472616E736665722E7372656371
S11300000C9456000C946B000C946B000C946B00D5
S11300100C946B000C946B000C946B000C946B00B0
S11300200C946B000C946B000C946B000C946B00A0
S11300300C946B000C946B000C946B000C946B0090
S11300400C946B000C946B000C946B000C946B0080
S11300500C946B000C946B000C946B000C946B0070
S11300600C946B000C946B000C946B000C946B0060
S11300700C946B000C946B000C946B000C946B0050
S11300800C946B000C946B000C946B000C946B0040
S11300900C946B000C946B000C946B000C946B0030
S11300A00C946B000C946B000C946B0011241FBE19
S11300B0CFEFDAE0DEBFCDBF11E0A0E0B1E0EEEFBC
S11300C0F2E002C005900D92A431B107D9F70E9465
S11300D005010C947D010C940000E1E6F0E080E859
S11300E08083108208950F931F93CF93DF938C0125
S11300F0C0E0D0E003C021960E947601F801EC0F25
S1130100FD1F80818111F7CFCE01DF91CF911F9127
S11301100F91089520E030E006C0FC01E20FF31FC8
S113012010822F5F3F4F26173707BCF30895DC0179
S113013012963C911297832F90E006C0FD01E90FBF
S1130140F11D238182279F5F9317C0F3089520E058
S113015030E090E016C083B1482F417050E0BA01FE
S1130160022E02C0660F771F0A94E2F7960FEFE99A
S1130170FFE03197F1F700C00000892F80952F5FD1
S11301803F4F283031053CF30895CF93FC01208183
S1130190253A61F421812A3561F4C6810E949700D1
S11301A091E0C81390E0892F90E005C080E090E0D2
S11301B002C080E090E0CF9108950F931F93CF93F6
S11301C0DF93CDB7DEB727970FB6F894DEBF0FBE27
S11301D0CDBF8C0167E070E0CE0101960E948A00D9
S11301E080E090E001C0019682309105E4F3F801CB
S11301F0158280E027960FB6F894DEBF0FBECDBF00
S1130200DF91CF911F910F910895CF93DF93CDB7D5
S1130210DEB728970FB6F894DEBF0FBECDBF0E949D
S11302206D000E94650184B18E7F84B984B18260BF
S113023084B985B18D7F85B983B102C082E085B967
S11302401899FCCF8FE99FE00197F1F700C00000F7
S113025015B868E070E0CE0101960E948A0000E0C3
S113026010E011C00E94A700E1E0F0E0EC0FFD1FD8
S1130270E00FF11F80838FE99FE00197F1F700C041
S113028000000F5F1F4F0730110564F31886CE017D
S113029001960E94C500892B21F480E091E00E9420
S11302A07300CE0101960E94730080E191E00E94E8
S11302B07300CE0101960E94DD0090E00E9473005D
S11302C080E191E00E947300B7CF88E090E09093C2
S11302D0CD008093CC001092C80088E18093C900BF
S11302E086E08093CA001092CB0008959091C800D4
S11102F095FFFCCF8093CE000895F894FFCFC5
S11302FE44617461207761732062726F6B656E0066
S107030E0D0A0000D0
S9030000FC
