S017000050424C5F49525F7472616E736665722E7372656371
S11300000C9456000C9460000C9460000C946000F6
S11300100C9460000C9460000C9460000C946000DC
S11300200C9460000C9460000C9460000C946000CC
S11300300C9460000C9460000C9460000C946000BC
S11300400C9460000C9460000C9460000C946000AC
S11300500C9460000C9460000C9460000C9460009C
S11300600C9460000C9460000C9460000C9460008C
S11300700C9460000C9460000C9460000C9460007C
S11300800C9460000C9460000C9460000C9460006C
S11300900C9460000C9460000C9460000C9460005C
S11300A00C9460000C9460000C94600011241FBE3A
S11300B0CFEFDAE0DEBFCDBF0E9468000C94880069
S11300C00C940000E1E6F0E080E88083108208955B
S11300D00E9462000E94700081E00E948100FCCFB7
S11300E088E090E09093CD008093CC001092C800FB
S11300F088E18093C90086E08093CA001092CB0007
S113010008959091C80095FFFCCF8093CE00089588
S1070110F894FFCF8D
S9030000FC
