S017000050424C5F49525F7472616E736665722E7372656371
S11300000C9456000C9460000C9460000C946000F6
S11300100C9460000C9460000C9460000C946000DC
S11300200C9460000C9460000C9460000C946000CC
S11300300C9460000C9460000C9460000C946000BC
S11300400C9460000C9460000C9460000C946000AC
S11300500C9460000C9460000C9460000C9460009C
S11300600C9460000C9460000C9460000C9460008C
S11300700C9460000C9460000C9460000C9460007C
S11300800C9460000C9460000C9460000C9460006C
S11300900C9460000C9460000C9460000C9460005C
S11300A00C9460000C9460000C94600011241FBE3A
S11300B0CFEFDAE0DEBFCDBF0E9468000C94BB0036
S11300C00C940000E1E6F0E080E88083108208955B
S11300D00E9462000E94A30084B18E7F84B984B11F
S11300E0826084B985B18D7F85B983B102C082E015
S11300F085B91899FCCF8FE99FE00197F1F700C00B
S1130100000015B880E090E020E016C033B13170F3
S1130110C32FE0E0DE2FAE01082E02C0440F551FAE
S11301200A94E2F7240FEFE9FFE03197F1F700C0FA
S11301300000122F10950196883091053CF3812F11
S11301400E94B400D2CF88E090E09093CD008093D9
S1130150CC001092C80088E18093C90086E08093A7
S1130160CA001092CB0008959091C80095FFFCCF6F
S10D01708093CE000895F894FFCFA9
S9030000FC
