S017000050424C5F49525F7472616E736665722E7372656371
S11300000C9456000C946B000C946B000C946B00D5
S11300100C946B000C946B000C946B000C946B00B0
S11300200C946B000C946B000C946B000C946B00A0
S11300300C946B000C946B000C946B000C946B0090
S11300400C946B000C946B000C946B000C946B0080
S11300500C946B000C946B000C946B000C946B0070
S11300600C946B000C946B000C946B000C946B0060
S11300700C946B000C946B000C946B000C946B0050
S11300800C946B000C946B000C946B000C946B0040
S11300900C946B000C946B000C946B000C946B0030
S11300A00C946B000C946B000C946B0011241FBE19
S11300B0CFEFDAE0DEBFCDBF11E0A0E0B1E0EEE2C9
S11300C0F3E002C005900D92A431B107D9F70E9464
S11300D010010C9495010C940000E1E6F0E080E836
S11300E08083108208950F931F93CF93DF938C0125
S11300F0C0E0D0E003C021960E948E01F801EC0F0D
S1130100FD1F80818111F7CF80E090E0DF91CF91D6
S11301101F910F9108950F931F93CF93DF938C0139
S1130120C0E0D0E003C021960E948E01F801EC0FDC
S1130130FD1F80818F3FB9F780E090E0DF91CF9180
S11301401F910F91089520E030E006C0FC01E20FFA
S1130150F31F10822F5F3F4F26173707BCF3089514
S1130160DC0112963C911297832F90E006C0FD01AA
S1130170E90FF11D238182279F5F9317C0F3089530
S113018020E030E090E016C083B1482F417050E089
S1130190BA01022E02C0660F771F0A94E2F7960F87
S11301A0EFE9FFE03197F1F700C00000892F809557
S11301B02F5F3F4F283031053CF30895CF93FC0166
S11301C02081253A61F421812A3561F4C6810E9497
S11301D0B00091E0C81390E0892F90E005C080E062
S11301E090E002C080E090E0CF910895AC0185EAF0
S11301F0FB01808320E030E00BC0FB01E20FF31F22
S1130200DA01A20FB31F13969C9190832F5F3F4F87
S11302102330310594F38FEFFB018383CB010895E1
S1130220CF93DF93CDB7DEB72C970FB6F894DEBF2C
S11302300FBECDBF0E946D000E947D0184B18E7FF0
S113024084B984B1826084B985B18D7F85B983B165
S113025002C082E085B91899FCCF8FE99FE001972D
S1130260F1F700C0000015B868E070E0CE01019617
S11302700E94A30000E010E011C00E94C000E1E071
S1130280F0E0EC0FFD1FE00FF11F80838FE99FE08A
S11302900197F1F700C000000F5F1F4F07301105F1
S11302A064F319861A861B868FEF8C871886CE0115
S11302B001960E94DE00892B49F480E091E00E94BF
S11302C0730080E191E00E947300C1CFBE01675FBB
S11302D07F4FCE0101960E94F6000E948B0080E1C0
S11302E091E00E9473009FEF29E688E1915020403D
S11302F08040E1F700C00000AACF88E090E090932E
S1130300CD008093CC001092C80088E18093C9008E
S113031086E08093CA001092CB0008959091C800A3
S111032095FFFCCF8093CE000895F894FFCF94
S113032E44617461207761732062726F6B656E0035
S107033E0D0A0000A0
S9030000FC
